:100000000C94A6000C9400000C9400000C940000CA
:100010000C9400000C9400000C9400000C94000060
:100020000C9400000C9400000C9400000C94000050
:100030000C9400000C9400000C9400000C94000040
:100040000C9400000C9400000C9400000C94000030
:100050000C9400000F0F0F0F43686F6F73652046FD
:100060006F6F64004120422043204400466F6F645C
:1000700020410050726963653D35302063656E74C0
:1000800000706169640065787472612070616964F0
:1000900000466F6F6420420050726963653D3635DB
:1000A0002063656E7400466F6F6420430050726970
:1000B00063653D37372063656E7400466F6F64205B
:1000C000440050726963653D36332063656E740089
:1000D00080C00400080354000C00600258000800AF
:1000E0006C026400070074026C000E007B02730057
:1000F0000500890281000B008E028600070099022C
:1001000091000E00A00298000500AE0281000B00D5
:10011000B30286000700BE02A6000E00C502AD00B5
:100120000500D30281000B00D80286000700E3021D
:10013000BB000E00EA02C2000500F80281000B00BD
:10014000FD02860002000C03D0000000F894EE27A8
:10015000ECBBF1E0FBBFEBBFE5BF8DE0A2E0BB274E
:10016000ED938A95E9F780E098E0A0E6ED9301979A
:10017000E9F7E2EDF0E085919591009761F0A591A6
:10018000B59105901590BF01F00105900D92019772
:10019000E1F7FB01F0CFEFE5EDBFE8E0EEBFC0E631
:1001A000D2E00C94F9002497E0E8E883E0E4E983E6
:1001B000E0E2EA83E0E1EB831A9310E01430B0F45C
:1001C0000E940103E081E2BB02B2E12FF0E0DE0118
:1001D0001196AE0FBF1FEC91E029E2BBA5E0B0E0A5
:1001E0000E942A03EFE0E2BB1F5FE8CF188125964B
:1001F00008956097E0E0E883E983EA83EB83EC838A
:10020000ED83EE83EF83EABBEBBBE7BBEFEFE8BB2D
:10021000E0E0E4BBE5BBEFEFE1BBEFE0E2BBE0E039
:10022000E3BFE2BFECBFEFBDEEBDEDBDECBDE7BD92
:10023000E6BDEBBDEABDE9BDE8BDE2BDE5BDE4BD9F
:10024000E3BDE9BFE5BFE4BFEAB9E0E8E8B9E0E053
:10025000E0BFE6B9EDB9E6BFA0E1ACD1022E032ABA
:1002600051F479D1A0E6B2E00E940603ACE6B2E018
:1002700090D12F5F3F4FB09916C00E940B03B09BE7
:10028000FECF00240416050628F4EC85FD853A9679
:10029000EC87FD87042E052A21F4E1E0F0E0EE87EB
:1002A000FF874F5F5F4FB19915C0B5D1B19BFECFAE
:1002B00000240416050628F4EC85FD853596EC87A8
:1002C000FD87042E052A21F4E2E0F0E0EE87FF87A7
:1002D0004F5F5F4FB29915C09ED1B29BFECF0024F5
:1002E0000416050628F4EC85FD853196EC87FD871C
:1002F000042E052A21F4E3E0F0E0EE87FF874F5F4C
:100300005F4FB3991AC087D1B39BFECFE881F981C3
:100310003196E883F98300240416050628F4EA815F
:10032000FB813196EA83FB83042E052A21F4E4E065
:10033000F0E0EE87FF874F5F5F4FB49927C06BD126
:10034000B49BFECF20E030E040E050E0E0E0EE87FC
:10035000EF87EC87ED87EA87EB87E887E987EE830D
:10036000EF83EC83ED83EA83EB83E883E98310E09A
:10037000143028F446D1A0E0A0831F5FF9CF10E02D
:100380001A3018F410DF1F5FFBCF68CFAE85BF8532
:100390001197D1F4E0D0A4E7B2E038D1ABE7B2E0F6
:1003A000F8D0E2E3F0E03BD1D29729F4D4D0A9E829
:1003B000B2E03AD153CFAC85BD85D39728F0CBD0EE
:1003C000AEE8B2E031D14ACFAE85BF851297F1F4E5
:1003D000C2D0A9E9B2E01AD1A0EAB2E0DAD0E1E4F1
:1003E000F0E01DD1A134E0E0BE0729F4B4D0AEEABC
:1003F000B2E01AD133CFAC85BD85A234E0E0BE07B0
:1004000028F0A9D0A3EBB2E00FD128CFAE85BF85ED
:100410001397F1F4A0D0AEEBB2E0F8D0A5ECB2E0C7
:10042000B8D0EDE4F0E0FBD0AD34E0E0BE0729F455
:1004300092D0A3EDB2E0F8D011CFAC85BD85AE343B
:10044000E0E0BE0728F087D0A8EDB2E0EDD006CFFF
:10045000AE85BF851497E1F47ED0A3EEB2E0D6D08E
:10046000AAEEB2E096D0EFE3F0E0D9D0DF9729F41E
:1004700072D0A8EFB2E0D8D0F1CEAC85BD85A03463
:10048000E0E0BE0728F067D0ADEFB2E0CDD0E6CE19
:10049000EC85FD85EA87FB87AE81BF81EA1BFB0BFC
:1004A000EC83FD83AA81BB81119721F4EA85FB854A
:1004B000EC83FD8310E01430C8F4AC81BD810E9450
:1004C0006C0394F49ED0BF01AC81BD81EAE0F0E002
:1004D0000E945003DB01EC93AC81BD81EAE0F0E0C7
:1004E0000E944B03EC83FD831F5FE5CF10E01A30C1
:1004F00018F459DE1F5FFBCFB1CEFFCFAA93EBB349
:10050000EF70AE2FE881E07FEA2BEBBB82E08A95AB
:10051000F1F7DA9A82E08A95F1F7DA9882E08A9523
:10052000F1F76DC0AA93A881E9DFE881E295E8833D
:10053000A881E4DF81E18A95F1F761C0AA93E8819F
:10054000F0E0E45FFC4FE081A981AE0FEBDF598062
:10055000488022960895A2E072D0ACE0E3DFA1E0EB
:100560006ED0E0E04E2E5E2E0895AA93A881AA30A8
:1005700011F0571440F0E0E0EA934394A42DDEDF3D
:10058000A881AA30E1F15394D89AA881CBDFD898FA
:1005900036C0BA93AA931A93A981BA81ED91A9831F
:1005A000BA831E2FE03019F0A12FDFDFF5CF1881BD
:1005B00023960895AA93EAB3E06FEABBD29AD09A41
:1005C000D19ADA98D898D9987880E881E058E09361
:1005D0000E03E881E054E0930F031DD035D034D0F2
:1005E00033D0A0E28BDF81E28A95F1F7A8E29ADFAF
:1005F000A4E098DFA5E896DFA6E094DFACDF2196C3
:100600000895E12FF0E0E85FFC4F0895C2DFE0E0DD
:10061000EA93A1E093CFA4E1B0E00C942A03EE8327
:10062000FF83AC85BD850895B4DFA8EEB3E00E94DA
:100630002A03E0E0EE87EF8720E030E0089572DFE4
:10064000A3E0B0E00C942A03A0E358DF81E28A958E
:10065000F1F70895109639F08AEF90E00197F1F7DD
:10066000A8951197C9F70895F195E195F04008957F
:100670000024112490E1AA0FBB1F001C111C0E1AAC
:100680001F0A18F40E0E1F1E01C0A1609A9599F75B
:10069000FD01D001089512D0EBDF0EF4E5DF0895DF
:1006A000E894B7FF04C0A095B09511966894F7FD43
:1006B000DBDFDEDFFD010EF4D7DF0895E894F7FFFE
:1006C00002C0D2DF6894B7FF06C0A095B09511961E
:1006D00000F8039400FA089500240A160B06089502
:00000001FF
